:100000000C9441060C945E060C945E060C945E06FD
:100010000C945E060C945E060C945E060C945E06D0
:100020000C945E060C945E060C94D2230C94AA24C5
:100030000C94DA0F0C945E060C945E060C945E062B
:100040000C945E060C945E060C945E060C945E06A0
:100050000C945E060C94AE230C945E060C945E0623
:100060000C945E060C945E060C945E060C945E0680
:100070000C945E060C945E060C945E060C945E0670
:100080000C945E060C945E060C945E060C945E0660
:100090000C945E060C945E060C945E060C945E0650
:1000A0000C945E060C945E060C945E063D003C00CB
:1000B00000003D003B0000003E003F0000003D000E
:1000C0003E0000003B003C0000003A003B00000006
:1000D000D100CE00D200000004431C001700000035
:1000E0004F00520050000000084215000C000000B4
:1000F0004F0052004A004B00000052005100000027
:100100004D0052004E00000050004B000000510016
:100110004B0000004F004B0000004D004F0000005E
:1001200004431C000C001245000008421500170093
:100130001641000015001C00000004431500124584
:1001400000000C00164100001C001641000008428F
:10015000164100000443084200001F002300000075
:1001600021001F0000004F00510050004E00000011
:100170004D0052004A004E000000520050000000A6
:100180004F005200000008421C000C001245000005
:100190000443150017001245000015000C00000074
:1001A00008421500000004431C000C00000017006A
:1001B0000C00000004431245000004430C00000042
:1001C00004431C0000002200230000002100220044
:1001D00000001F00200000001E001F00000004435C
:1001E000150017001641000008421C000C0000001A
:1001F00015001700164100000443170016410000C7
:1002000008420C00124500000443150017000000CE
:100210001C000C00124500001C00124500000443A5
:10022000164100001700164100001500164100009D
:1002300008420C0000001C000C0000001500170014
:1002400000000443150000000C00124500000842A5
:100250001C00000008421245000000AF00AE070875
:100260007F0807003E5B4F5B3E003E6B4F6B3E00DE
:100270001C3E7C3E1C00183C7E3C18001C577D57E1
:100280001C001C5E7F5E1C0000183C180000FFE78D
:10029000C3E7FF00001824180000FFE7DBE7FF00BA
:1002A00030483A060E00262979292600407F0505A8
:1002B0000700407F05253F005A3CE73C5A007F3E3F
:1002C0001C1C0800081C1C3E7F0014227F22140006
:1002D0005F5F005F5F0006097F017F000066899510
:1002E0006A0060606060600094A2FFA2940008044D
:1002F0007E04080010207E20100008082A1C080038
:10030000081C2A0808001E10101010000C1E0C1EDD
:100310000C0030383E383000060E3E0E060000005D
:100320000000000000005F00000000070007000060
:10033000147F147F1400242A7F2A120023130864D8
:100340006200364956205000000807030000001CD8
:10035000224100000041221C00002A1C7F1C2A00B0
:1003600008083E08080000807030000008080808EF
:1003700008000000606000002010080402003E51E8
:1003800049453E0000427F4000007249494946000D
:100390002141494D33001814127F1000274545456F
:1003A00039003C4A494931004121110907003649C9
:1003B00049493600464949291E0000001400000042
:1003C00000403400000000081422410014141414EA
:1003D00014000041221408000201590906003E41A0
:1003E0005D594E007C1211127C007F49494936004C
:1003F0003E41414122007F4141413E007F49494900
:1004000041007F09090901003E41415173007F0805
:1004100008087F0000417F4100002040413F01006B
:100420007F08142241007F40404040007F021C02B0
:100430007F007F0408107F003E4141413E007F095C
:10044000090906003E4151215E007F091929460035
:1004500026494949320003017F0103003F404040E3
:100460003F001F2040201F003F4038403F006314E2
:10047000081463000304780403006159494D4300E4
:10048000007F414141000204081020000041414129
:100490007F0004020102040040404040400000038D
:1004A000070800002054547840007F284444380056
:1004B000384444442800384444287F003854545475
:1004C000180000087E09020018A4A49C78007F0888
:1004D0000404780000447D4000002040403D0000BE
:1004E0007F102844000000417F4000007C04780415
:1004F00078007C0804047800384444443800FC1830
:100500002424180018242418FC007C080404080083
:1005100048545454240004043F4424003C404020E8
:100520007C001C2040201C003C4030403C00442803
:10053000102844004C9090907C004464544C44003B
:100540000008364100000000770000000041360836
:1005500000000201020402003C2623263C000000A9
:1005600000000000404040F0F8F8FF38FFF8F83F86
:10057000F8F8FF38FFF8F8F04040400000000000B5
:100580000080C0C0C0800000C0C08000000080C0EB
:10059000C000C0C0000080C0C00000000000C0C09B
:1005A000C0C0C000C0C0000000000000000000008B
:1005B000000000000000000000000000000000003B
:1005C000000000000000000000000000000000002B
:1005D00000000000000000000000000000C0F0F873
:1005E000FC3E1E06010000007F4141417F007F412B
:1005F00041417F000080C0E07E5B4F5BFEC0000099
:10060000C000DCD7DEDEDED7DC00C000000000006A
:1006100000000000000000000000000000000000DA
:1006200000000000494949FFFFFFFFE0DFBFBF00B6
:10063000BFBFDFE0FFFFFFFF4949490000000000A6
:100640001F3F6060E0BF1F007F7F071E381E077FCF
:100650007F007F7F0E1F3B716000000000007F7FE6
:100660000C0C0C007E7E007F7E0303007F7E030364
:100670007E7E03037F7E000F3E703C063C703E0F83
:1006800000327B49493F7E007F7E0303001E3F69A5
:10069000696F2600000000000000000000030F1F2B
:1006A0003F3C7870600000007F4141417F007F4106
:1006B00041417F00307B7F7830202030787F3B00C5
:1006C00003000F7F0F0F0F7F0F00030000000000DB
:1006D000000000000000000000000000000000001A
:1006E00000000000010101070F0F7F0F7F0F0F7E39
:1006F0000F0F7F0F7F0F0F070101010000000000A7
:1007000000000000000101000000000000000000E7
:1007100000000000000000000000000000000000D9
:1007200000000000000000000000000000000000C9
:1007300000000000000000000000000000000000B9
:1007400000000000000000000000000000000000A9
:100750000000000000000000000000000000000099
:100760000000000000000000000000000000000089
:100770000000000000000000000000000000000079
:100780000000000000000000000000000000000069
:100790000000000000000000000000000000050153
:1007A0000902A10185020901A10005091901290811
:1007B00015002501950875018102050109300931EF
:1007C0001581257F95027508810609381581257FD9
:1007D000950175088106050C0A38021581257F955B
:1007E0000175088106C0C005010980A101850319B2
:1007F000012AB700150126B700950175108100C0C8
:10080000050C0901A101850419012AA00215012680
:10081000A002950175108100C005010906A101859E
:1008200006050719E029E7150025019508750181DE
:10083000020507190029EF1500250195F0750181C2
:1008400002050819012905950575019102950175A3
:10085000039101C005010906A101050719E029E777
:100860001500250195087501810295017508810122
:100870000507190029FF150026FF00950675088158
:100880000005081901290595057501910295017565
:10089000039101C009023B00020100A0FA09040013
:1008A000000103010100092111010001224000079C
:1008B000058103080001090401000103000000098B
:1008C000211101000122B600070582032000011258
:1008D00001000200000008717E727E01000102002A
:1008E000011C037400680065007000610069006EFF
:1008F0000074006200720075007300680000000C54
:1009000003610072006400750078000000040309B0
:100910000400DA02817FD9F1DB20A4A62EAF00A06B
:10092000C000A1C800AED580A81FD300408D142000
:1009300000203F3F3F2000203F3F3F200020746FBA
:100940006D20002043757320002020736520002057
:100950004D6F752000202020202000204E61762041
:10096000002020656E200020506172200020626F00
:100970006C20002053796D200020626572200020D9
:100980004E756D20002053455920002041525420BF
:1009900000000080F0F81C0C0C1CFCFC0C0C1CF87B
:1009A000F0381C0CFCFC0CECFC1C0C0C0C1C7870C7
:1009B0000000F0FF3F0C0C0C0C0CFFFF060E1F7B21
:1009C000F1C00000FFFF00F1F3C7868686CEFCF879
:1009D0000000F1F99C8C8C8C0C0C1D79E08080E07F
:1009E000791D0CFCFD0D0C0CFDFD1D0D0D1DF9F010
:1009F00000007F7F6161616160600000017F7F01B5
:100A00000060607F7F6060001F3F706060703F1F0C
:100A10000080808080808080808080808080808056
:100A200080808080808080808080808080808080C6
:100A300080FFFF03037373331313030303030303E1
:100A40000301010100000000000101011303037F05
:100A5000FFFF0000000000E0380C06068C98F00054
:100A600000003078C886020080C0600000000000EE
:100A7000030100000000007F0E06030101003F009B
:100A80000000000000010303070C1830180C0602D8
:100A90000000000000003CE6820202C63C000000AC
:100AA000000000003060C080000000806030000066
:100AB00000000000000000010F3901838286040C51
:100AC00008000000000080E13B0E03000000000071
:100AD0000000000004020203011FF10100000000F9
:100AE0000000000000000300000000000000000003
:100AF00000F000000080000000000107C06030101E
:100B0000103060C000000101E31E0202020200007A
:100B100000FF000000FF7F1E00800000070C18F09F
:100B2000000002131010101C17101000000000002D
:100B3000001F000000000000000103020202030188
:100B40000000E030180C0602020604EC3800000039
:100B50000080000000000000000000000000000015
:100B60000000070C18101018080C06030000000005
:100B700000FFFE0000FCF8F8F0800000000000001C
:100B8000000000000000000000000000000000C0A5
:100B9000E0FFFF0000E3E3E3E3E3632280C0E0E083
:100BA000E0E0E0E070702002820222E3E30000FF58
:100BB000FFFFFF0000FFFFFFFFFFFEF8E18313735D
:100BC000F3F1F9F8FCFCFEFFFFFFFCF8E1C0003F89
:100BD000FFFFFFFCFCFCFCFCFCFCFCFCFCFCFCFC4C
:100BE000E1C38F1F1F3F3F3F3F3F3F9F8FC7E0F84D
:100BF000FF030303030303030303030303030303C9
:100C000003030303030302020303030303030303B6
:100C100003164117001500044312450C001C000880
:100C200042010020001F001E0000002300220021BE
:100C3000003500330031001E022E002D0038020165
:100C40000030022602270201002F022F0030000090
:100C5000004B004A0052004D004E00500051004F22
:100C60000000003A003B003C0001003D003E003F18
:100C700000D900D200CD00D100DA00CF00CE00D0E4
:100C8000000011241FBECFEFDAE0DEBFCDBF13E0BE
:100C9000A0E0B1E0E6E1FEE402C005900D92A834C8
:100CA000B107D9F727E0A8E4B3E001C01D92A4344E
:100CB000B207E1F70E949D1F0C94B7260C94000028
:100CC0009C01892F99270097E9F09C0188E0A901F0
:100CD00074E0569547957A95E1F74115510511F065
:100CE0008C5F9A01A90156954795569547954115F0
:100CF000510511F08E5F9A0136952795232B09F047
:100D00008F5F089580E0E3CF90936A068093690631
:100D100008959093410780934007089521E030E0C3
:100D200002C0220F331F8A95E2F78091400790910D
:100D30004107822B932B0E948906089521E030E021
:100D400002C0220F331F8A95E2F7209530958091DB
:100D5000400790914107822393230E9489060895BA
:100D6000282F923038F5843028F534E0939FC00165
:100D70001124820F911D21E001C0220F8A95EAF70C
:100D8000E8E5F6E040E050E070E03191DF011197D6
:100D9000CB01042E02C0969587950A94E2F78170E4
:100DA00081958327822383278C934F5F5F4F443045
:100DB000510559F70895923018F5843008F524E06C
:100DC000929FA0011124480F511DE8E5F6E060E074
:100DD00070E080E0219130E0042E02C03695279526
:100DE0000A94E2F721703327062E01C0220F0A94DD
:100DF000EAF7822B6F5F7F4F6430710559F70895D2
:100E000080E0089580910F0690910E06981301C01E
:100E100008958F5F8770FACF90910F019923E1F0C9
:100E20009091420797FF18C0E82FE695E695E69562
:100E3000803FF0F4F0E0E65BFC4F877021E030E0AB
:100E4000A90102C0440F551F8A95E2F7CA01809597
:100E50009281892382830895ECE4F3E091918913D0
:100E600003C0DF0111971C9253E0E235F507B1F79B
:100E7000089520916C068095822380936C06982FAC
:100E80009770911117C030E0482F082E000C550BB9
:100E90002417350779F09091430792FF0BC0859591
:100EA000859585950E949E0610926C0610926E069E
:100EB00010926D060895982F90958091670689236A
:100EC00080936706089580916606882331F010921A
:100ED00066061092700610926F0608957230B8F48C
:100EE0006430A8F48730B0F4E82FF0E0EE0FFF1F75
:100EF000E70FF11DEE0FFF1FEE0FFF1FE60FF11DB5
:100F0000EE0FFF1FEF5EF34F85919491089580E0FF
:100F100090E0089581E0FCCF803E9105D1F1C8F4C6
:100F20008133910509F47FC048F48932910509F4B1
:100F30006FC08A32910509F47DC008958933910507
:100F4000E1F082389105C9F08533910509F45BC061
:100F50000895843E9105D1F148F4823E910531F126
:100F6000833E910541F181EE90E00895863E910522
:100F7000C1F1873E9105E1F1089520914207237068
:100F8000211165C02091430723FF14C089E290E03E
:100F900008952091420720FD43C03091430730FF60
:100FA00009C024FF4EC080E090E0089520914207E0
:100FB00022FDF7CF08952091420722FD45C03091D0
:100FC000430730FD44C024FFF5CFEDCF2091430708
:100FD00021FFF0CF8091420784FDE5CF87EE90E0BE
:100FE00008952091420723FFE5CF24FDDCCFF6CF03
:100FF0002091420723FD2EC03091430731FFE3CFFC
:1010000084EE90E008952091420725FFD3CFBECF14
:101010002091420725FD21C02091430723FFCACF1D
:1010200089E390E008952091420726FFC3CF8AE22A
:1010300090E008952091420726FFBCCF81E390E025
:10104000089583EE90E0089582EE90E0089580EE9A
:1010500090E0089586EE90E0089585E390E0AACFB1
:101060002091420722FF06C0982F98719830C1F452
:10107000877F846090914307392F3170927023FFEE
:1010800021C0482F4871483191F4877E84619923AB
:10109000B1F0982F9171913191F48E7E88610FC0DB
:1010A000982F9471943031F78B7F8860E3CF482F6D
:1010B0004471443139F48B7E8861911118C024FD4C
:1010C000877E0895332369F0382F3871383019F44A
:1010D000877F8160DCCF382F3171313011F48E7F02
:1010E0008860992361F3982F9871983191F6877EE3
:1010F0008161E5CF1F93CF93DF930E948C07EC01B2
:10110000811522E5920708F053C0811540E5940748
:1011100008F0DDC0803E9105F8F48D3C910508F0A3
:10112000AEC0883A910580F4853A910508F099C0DF
:101130008130910521F00497813A910550F4CE0158
:10114000DF91CF911F910895885A91094B9708F428
:101150008BC0C0E0D0E0F3CF811550E49507F8F4E0
:10116000C11580E2D80708F0CBC0C83ED10538F3DE
:10117000CE019A9581159F4160F78D2F0E9430080E
:10118000182FCE0199270E948C07212F30E0322F93
:101190002227E901CC27DF71C82BD92BD0CF992783
:1011A0000E948C07CC27DF70C82BD92BD06AC7CF01
:1011B000803842E59407C8F5803652E5950708F077
:1011C00067C0C03482E5D807B0F08C2F869586952D
:1011D000877020E2829FC0011124C37021E030E0BB
:1011E000A90102C0440F551FCA95E2F7EA01C82BB6
:1011F000D92BDC68A4CFC03252E5D50708F041C036
:101200008C2F8695869520E2829FC0011124C370A1
:1012100021E030E0A90102C0440F551FCA95E2F752
:10122000EA01C82BD92BDD688ACF803C52E59507AF
:1012300060F48F71C03AD24508F03FC090E0982F1B
:101240008827EC01C46FD06A7ACF805C9245809782
:1012500008F07FCFDC2FCC27CC27DF71C06FD06A9E
:101260006ECFA497D0646BCFC85AD0E0CC0FDD1FEF
:10127000CF5EDC4F0990D881C02DD46460CFD0659B
:101280005ECFCF71D0E0DC2FCC27C16FD06A57CFB3
:1012900086958695877020E2829FC0011124C370D5
:1012A00021E030E0A90102C0440F551FCA95E2F7C2
:1012B000EA01C82BD92BDA6842CF0E943008C82F28
:1012C000D0E0DC2FCC27CC27DF71D06238CF8F71F4
:1012D0000E94300865E0D695C7956A95E1F7CF7012
:1012E000D0E0DC2FCC27282F30E084FF05C054E06D
:1012F000220F331F5A95E1F7C22BD32BD0691FCF92
:101300008D2F8F710E943008182FCE0199270E94CF
:101310008C07212F30E0322F222722273F71282BE4
:10132000392BE901D2CFA0E0B0E0E9E9F9E00C9473
:101330000B268C01E0904007F090410780916906F0
:1013400090916A06E82AF92ACFE0D0E0CC24C39431
:10135000D12CC6010C2E02C0880F991F0A94E2F707
:101360008E219F21892B49F4219798F7B12C8B2D41
:10137000CDB7DEB7E9E00C942726BC2EB8018C2F40
:101380000E946E070E947A08019771F3F0CF0F93C5
:101390001F93CF93FC0186819781009799F48281F6
:1013A00000811181882391F0662381F0C8010E9499
:1013B0009309C82F682FC8010E94B006B8018C2F6E
:1013C0000E946E07CF911F910F910895C8010E944E
:1013D000DB06C82FF3CFCF93DF93D82FC92F0E94FE
:1013E00093096D2F7C2F0E946E070E947A08DF916F
:1013F000CF910895FC0183819481892BD9F081815B
:10140000908189238F3FB1F0868197810097A1F069
:101410000E947A08282F92959F709630B9F088F430
:10142000925F9F70923030F481E0203FA1F058F439
:10143000283E58F080E009C0808191810E94EB092C
:10144000E9CF9A5FEECF243FA9F7089581E0283EC7
:1014500018F0213FF9CF0895089580E00895809114
:101460005E0680FD14C081FD14C082FD16C080910F
:101470005D06882381F08E3180F420E5829FC001D3
:1014800011246EE170E00E944526862F089584E1C4
:10149000089588E2089588E0089580E50895809190
:1014A0005E0680FD17C081FD17C082FD19C08091C6
:1014B0005C06882399F0883298F428E0829FC00166
:1014C000112468E270E00E9445266115710551F013
:1014D000862F089562E0FCCF64E0FACF61E0F8CF98
:1014E00068E0F6CF81E00895CF93DF93B82FA92F5E
:1014F0009B018091D3039091D403855D9340AC010F
:10150000460F571F4130524020F020E032E0281BA8
:10151000390B4091C5035091C603EB2FFA2F280FCA
:10152000391FC1E0D0E08217930738F05093C6030B
:101530004093C503DF91CF9108956491DC01AB52D4
:10154000BC4F7C91761779F06C93BC01A5E0769541
:101550006795AA95E1F7DE0102C0AA0FBB1F6A9545
:10156000E2F74A2B5B2B01963196DDCF10927A067B
:1015700010927906E1E1F1E08581811103C01482C6
:1015800017821682389683E0E130F807A9F70895AC
:101590009C0150917C0660917B06452F641301C02D
:1015A0000895842F90E0FC01EE0FFF1FEF58F94FD4
:1015B0000190F081E02DE217F30791F463E0220F30
:1015C000331F6A95E1F7F901EF5EFE4F21E02483B6
:1015D0004513E6CF01968370992780937C06089582
:1015E0000196482F4370DACFE091EC05F091ED05BC
:1015F000309729F00190F081E02D0995089580E061
:101600000895A3E0B0E0E7E0FBE00C9412269C0113
:101610008091A2039091A30382179307A1F03093C6
:10162000A3032093A203E091EC05F091ED05309720
:1016300051F083E089833B832A830680F781E02D84
:10164000CE01019609952396E2E00C942E26A3E0A4
:10165000B0E0EDE2FBE00C9412269C018091A00327
:101660009091A10382179307A1F03093A1032093D7
:10167000A003E091EC05F091ED05309751F084E086
:1016800089833B832A830680F781E02DCE01019672
:1016900009952396E2E00C942E269C0180910F017F
:1016A0008823C1F08091420787FF14C0862F86955A
:1016B00086958695603FF8F4F901E80FF11D677093
:1016C00021E030E001C0220F6A95EAF78281822B87
:1016D00082830895F90132968FEF90E0419164176B
:1016E00051F08F3F19F4411101C0892F9F5F96304F
:1016F000A9F78F3F09F40895280F311D87FD3A950A
:10170000F90162830895A4E0B0E0E9E8FBE00C94FD
:1017100012268FB7F8942091D6053091D7054091C5
:10172000D8055091D90529833A834B835C838FBFB9
:1017300069817A818B819C812496E2E00C942E262B
:1017400080919F030895FC019B0180917D039091FE
:101750007E038617970740F0672B29F48091E800F5
:101760008E778093E800C90140E0009741F4411171
:1017700006C08091E80082FF2FC080E0089520918C
:10178000CD032223A9F12530A9F12091E80023FD02
:101790002DC02091E80022FDECCF2091E80020FF31
:1017A000E4CF3091F3002091F200009719F0283037
:1017B000310558F041E02830310509F040E0209132
:1017C000E8002E772093E800D0CF41914093F100BC
:1017D00001972F5F3F4FE9CF8091CD03882341F0E0
:1017E000853041F08091E80083FFC3CF81E0089508
:1017F00082E0089583E008958091770387FF13C006
:101800008091E80082FF06C08091E8008B7780938A
:10181000E80004C08091CD038111F2CF089580913A
:10182000CD038823D9F38091E80080FFF8CF809121
:10183000E8008E77ECCF2091E4003091E50095E64A
:10184000A9018091EC008170882331F08091E8003B
:1018500080FF06C080E008952091E80022FD1BC0B3
:101860008091CD03882391F0853091F08091EB0039
:1018700085FD10C02091E4003091E5004217530728
:1018800001F391509111DCCF84E0089582E0089536
:1018900083E0089581E00895E8EDF0E080818E7F97
:1018A00080831092E2001092DA001092E100A0EE24
:1018B000B0E08C9181608C9380818F77808319BC9C
:1018C000A7EDB0E08C918E7F8C9380818F7E80839A
:1018D000109276030895982FE42FE2709093E90018
:1018E000891308C0762F242F50E0E11111C091E038
:1018F000980FF4CF7091EC002091ED005091F00022
:1019000021FD06C09F5F973049F78093E900089555
:101910003091EB003E7F3093EB003091ED003D7F46
:101920003093ED003091EB0031603093EB00709319
:10193000EC002093ED005093F0002091EE0027FD85
:10194000E1CF0895A0E0B0E0E8EAFCE00C940C26BA
:10195000C8EDD0E088818F7E8883E7EDF0E080815C
:101960008160808384E082BF81E0809376038881F8
:101970008E7F888302EE10E0F80110821092DA0068
:1019800081EEC82ED12CF601108288818F77888352
:1019900088818068888388818F7D888319BC1092B4
:1019A000CD03109275031092CC031092740390EE45
:1019B000E92EF12CF70180818B7F80838881816003
:1019C000888342E060E080E00E946B0CF601808139
:1019D0008E7F8083F8018081816080838081886030
:1019E0008083F70180818E7F8083888180618883F6
:1019F000CDB7DEB7E8E00C942826E0910F06909171
:101A00000E06E91302C080E008952E2F30E058E062
:101A1000E59FF0011124E05FF94F5181561306C094
:101A20005081581303C05281541304C0F9013196F8
:101A3000E770E7CF81E008950F931F93CF93DF9373
:101A4000EB018A019091CD03943079F58093E90000
:101A50008FEF9091E80095FD07C095ED9A95F1F70D
:101A6000000081508111F5CF8091E80085FF1DC0F5
:101A70000E941B0C811114C08091E80085FD06C0F6
:101A80008091E8008E778093E800F2CF8881809380
:101A9000F100015011090115110511F02196ECCF4B
:101AA0008091E8008E778093E800DF91CF911F91BD
:101AB0000F910895CF93DF93D82FC92F80910F01F5
:101AC000811113C048E050E06D2F792F81E00E9412
:101AD0001C0D80E2ED2FFC2FAFE7B3E001900D92DB
:101AE0008A95E1F7DF91CF9108958091420787FDB4
:101AF00006C048E081E050E06D2F7C2FE8CF40E247
:101B000082E0F9CFBC0146E050E082E00E941C0D6B
:101B10000895BC0143E050E082E00E941C0D08954E
:101B20009091430792FB222720F9281779F080FB38
:101B300092F990934307609142077091430784E0C4
:101B400090E00E94A12682E00E9439070895E5ED09
:101B5000F3E080E092E0DF019C011D9221503040D3
:101B6000E1F7F093D403E093D3038FEF9FEF9093CB
:101B7000C6038093C5030895A0E0B0E0E2ECFDE069
:101B80000C940C266C017B0164E670E088E70E94EF
:101B9000F924EC0197FD11C08601EC0CFD1CF80145
:101BA000849164E670E00E946825EC01892B29F499
:101BB0000F5F1F4F0E151F0591F70E94EA25CE01FA
:101BC000CDB7DEB7E8E00C9428268091E4058823A1
:101BD00071F08091E305882351F062E070E08CE5BC
:101BE00092E00E94BC0D892B11F41092E305089538
:101BF000A4E0B0E0EEEFFDE00C9412268091E40545
:101C00008823F9F00E94830BDC01CB01805A9541B7
:101C1000AF4FBF4F8093DF059093E005A093E105A0
:101C2000B093E2058091E30581110BC062E070E0A2
:101C30008AE592E00E94BC0D892B19F481E0809323
:101C4000E3052496E2E00C942E262F923F925F92B9
:101C50006F927F928F929F92AF92BF92CF92DF92BC
:101C6000EF92FF920F931F93CF93DF938091C50361
:101C70009091C603892BA1F08091E405882381F01F
:101C80008091C90381110CC00E94F80D2091C503F9
:101C90003091C60380E061E070E02115310599F4D0
:101CA000DF91CF911F910F91FF90EF90DF90CF9038
:101CB000BF90AF909F908F907F906F905F903F907C
:101CC0002F9008958F5F082F10E01B01082E02C08F
:101CD000220C331C0A94E2F7A10142235323452B23
:101CE00089F39091CA039170911143C09801369580
:101CF0002795369527958295880F80763FE1380F96
:101D00008093020120930501309303019093060113
:101D100024E630E047E050E060E071E088E70E94B0
:101D20009825892B09F0BCCFA80125E0440F551F49
:101D30002A95E1F78091CA0380FD23C04B525C4F86
:101D400004E610E020E230E060E488E70E94BF256E
:101D5000892B09F0A5CFE101C095D0958091C503ED
:101D60009091C603C823D923D093C603C093C5035B
:101D700097CF880F880F880F37E0380F20E093E067
:101D8000BFCFE5EAF3E080E2DF011D928A95E9F733
:101D9000A5E0B3E001E013E089E0C82E83E0D82E8F
:101DA00097E0592E772473948D91E80129918E0143
:101DB000240F352F311D2B523C4FE82FF0E0EB550F
:101DC000FC4F80E090E0652C681A872C082E01C03B
:101DD000880C0A94EAF77901A12CE701B9907E01F9
:101DE000B820662D6A19677070E0DB2D062E01C0E1
:101DF000DD0F0A94EAF79D2E719561957109677060
:101E0000772701C0B6946A95EAF79B286081962AE5
:101E10009082A39468E0A612E0CF019631968830B4
:101E2000910589F6CA16DB0609F0BECF04E610E07C
:101E300020E230E045EA53E087CFCF93DF93682F6D
:101E40008091D3039091D4036A30B9F42091D505E1
:101E5000855D9340622F70E00E94EE25281B822F43
:101E600066E00E943926C82FC15018F4DF91CF9147
:101E7000089580E20E941D0FF7CF6D30F9F49C01A8
:101E8000255D33404091D505642F70E0C9010E9463
:101E9000EE25481B842FA901480F511D41155240C2
:101EA00018F080E020E030E0820F932F911D8B52DC
:101EB0009C4F9093D4038093D303D8CF26E0FC01AA
:101EC000ADE6B3E001900D922A95E1F7603E08F48B
:101ED00058C026E0FC0111922A95E9F7C091D3037E
:101EE000D091D40346E050E0BE018DE693E00E941D
:101EF00068269E01255D3340892B41F1C90145E0EB
:101F0000969587954A95E1F741E050E0BA0102C005
:101F1000660F771F8A95E2F7CB016091C503709138
:101F2000C603862B972BB9016B5F7F4FE5E0769553
:101F30006795EA95E1F702C0440F551F6A95E2F7ED
:101F4000842B952B9093C6038093C5032A5F3F4F44
:101F50004091D505642F70E0C9010E94EE25481B11
:101F6000463010F4240F311D211572E0370710F0B0
:101F700020E030E02B523C4F3093D4032093D30326
:101F800075CFF6E06F9FB0011124625A7D4F46E095
:101F900050E00E945F26A2CFCF93DF93EC01FE01B9
:101FA0008491811103C0DF91CF9108950E941D0F8C
:101FB0002196F5CF1F921FB61F9211248F939F93E6
:101FC000AF93BF938091CB03811113C08091D6054D
:101FD0009091D705A091D805B091D9054196A11D42
:101FE000B11D8093D6059093D705A093D805B093E3
:101FF000D905BF91AF919F918F911F901FBE1F90E8
:1020000018952FB7F8948091D6059091D705A09197
:10201000D805B091D9052FBF08958091670690919A
:102020006B06892B80934A0380916606882361F1B1
:102030000E94011020916F0630917006821B930B55
:10204000843F914010F00E94630780914A03909171
:102050006606892B80934A0380910F01882309F437
:1020600042C08091420787FF3EC08DE190E02CE4A2
:1020700033E0F90140812F5F3F4F41119F5F815055
:10208000C0F791110E94630740E250E06EEE75E0E8
:102090008AE493E00E946826892B21F180E2EAE439
:1020A000F3E0AEEEB5E001900D928A95E1F7E09194
:1020B000EC05F091ED053097A9F080910F01882390
:1020C00059F08091420787FF07C080914A038093AF
:1020D0004B0386E080934A030280F381E02D8AE47B
:1020E00093E00995089585E0C1CF882339F0909158
:1020F0006706892B809367060E940D100895882338
:1021000021F00E945B070E940D10089590914307F3
:1021100092FF10C098E0899F90011124622B609378
:102120006C060E948E060E94011090936E068093AA
:102130006D0608950E948E060895CF93DF93C82FF1
:10214000D09166068D2F8C238C1749F00E940110C8
:102150009093700680936F06DC2BD0936606DF9118
:10216000CF9108950E94011020916106309162067E
:10217000232B222321F08093E7059093E8052091FB
:10218000630630916406232B222321F08093E5051A
:102190009093E605E091EC05F091ED05309749F05C
:1021A00082E080935F060480F581E02D8FE596E064
:1021B00009950895662309F44BC0E3E3E80FE33182
:1021C00050F4F0E0E754F94D0C9459260E942F0A80
:1021D0008195809362060E94B21008950E942F0A92
:1021E000F8CF0E942F0A819580936106F4CF0E9458
:1021F0002F0AFACF0E944F0A80936306ECCF0E9409
:102200004F0A8195F9CF0E944F0A81958093640609
:10221000E2CF0E944F0AFACF815D990B21E030E0B6
:1022200001C0220F8A95EAF780916006822B809385
:102230006006D1CF80915E06816080935E06CBCF31
:1022400080915E068260F9CF80915E068460F5CF52
:10225000409161068D3C59F48091620687FF0DC064
:1022600010926206442359F410925D0608C08E3C19
:1022700081F48091620618169CF3442381F08091CA
:10228000630690916406892B8111A5CF10925C069C
:10229000A2CF8F3C41F447FFF0CF109261068091AE
:1022A00062068823E0CF803D19F41416B4F3E5CF1D
:1022B00090916306893D29F41916FCF61092630685
:1022C000DCCF8A3D19F497FFD8CFF8CF9091640600
:1022D0008B3D29F497FFD1CF10926406CECF8C3D71
:1022E00019F41916CCF3C9CF9FE2980F983090F4E7
:1022F000815D990B21E030E0B90102C0660F771FC4
:102300008A95E2F7CB0180959091600689238093AE
:102310006006B3CF8D3D31F480915E068E7F809351
:102320005E06ABCF8E3D21F480915E068D7FF7CFA8
:102330008F3D09F0A2CF80915E068B7FF0CFCF93C7
:10234000C82F8823C1F18CEF8C0F813AB0F58091B2
:102350000F01882301F18091420787FF1CC0EC2FF9
:10236000E695E695E695F0E0E65BFC4F828190E02D
:102370004C2F477021E030E002C0220F331F4A95F6
:10238000E2F782239323892B79F08C2F0E940C078C
:102390000E940D1009C0ECE4F3E08191C817A9F385
:1023A00023E0E235F207C9F76C2F8AE493E00E943C
:1023B0004D0B0E940D10CF91089580E28C0F883054
:1023C00068F4C77081E090E001C0880FCA95EAF711
:1023D000C0916706C82BC0936706EBCF8BE58C0FC7
:1023E000833038F42C2F2452330BC9010E94010B87
:1023F000E2CFE8E5EC0FEB3150F4F0E0EE0FFF1F19
:10240000EF5EFC4F808191810E94270BD4CF83E344
:102410008C0F833180F661E08C2F0E94DA10CBCFD5
:10242000882381F19CEF980F913A28F40E940C07C1
:102430000E940D10089590E2980F983050F4877024
:1024400091E001C0990F8A95EAF7892F0E945B07F6
:10245000EFCF9BE5980F933028F480E090E00E9446
:10246000010B089598E5980F9B3128F480E090E0E7
:102470000E94270B089593E3980F933118F460E0BE
:102480000E94DA1008951092670680910F01ECE423
:10249000F3E0882329F18091420787FF21C08EE174
:1024A000DF011D928A95E9F780E090E00E94010B20
:1024B00080E090E00E94270B10926B060E940D10A6
:1024C00086E0EFE5F6E0DF011D928A95E9F71092CC
:1024D0005D0610925C0610925E060E94B21008958E
:1024E00086E0DECF0E9443122FEF84E39CE0215070
:1024F00080409040E1F700C0000088E19AE00FB60C
:10250000F894A895809360000FBE90936000FFCF71
:10251000A0E0B0E0EEE8F2E10C940C267C01FC01B6
:102520009081818123813481232B09F4E1C08923A7
:102530008F3F09F4DDC061E0C7010E94C709EC01CB
:102540008231F7E29F0709F477C0F701833127E270
:10255000920708F04BC08031974209F45FC0C13147
:1025600087E2D80709F462C0828181110EC4F701A5
:1025700086819781009709F49AC10E947A08D82F22
:10258000C92FF701D280C5800C2D02950F70809164
:102590006C0687708823F1F0CD2CDD20E1F0892FC7
:1025A000807F803451F080E28D0F883098F00111E7
:1025B00004C0892F807E803269F08091430782FFBA
:1025C00009C082E00E94390780916C068770CC2494
:1025D000C3948111C12CEC2FE295EF70C03C08F040
:1025E000DFC1F0E0E453F94D0C9459268281C331E8
:1025F000F7E2DF0741F1C43127E2D20749F588232A
:1026000009F4B5CF8091670681FF04C082E00E9483
:102610007F10ADCF82E00E947510A9CF8281882300
:1026200009F4A5CF81E00E949D10A1CF828188236B
:1026300009F49DCF88E0F7CFF7018281882309F460
:1026400096CF84E0F0CF882309F491CF82E0EBCFDE
:10265000882309F4FFC0CE0190578397C0F0C6319C
:10266000FCE7DF0709F087C3809167068A7A91E06B
:10267000811101C090E09093650669E2811165E3E4
:102680008AE493E00E944D0B0E940D1021C084E06B
:1026900090E00E947D269093430780934207FE01BD
:1026A000E150F047E232F10520F4E852F94D0C9484
:1026B00059268091420781608093420760914207CA
:1026C0007091430784E090E00E94A1260E9443128B
:1026D00080916C068770882359F0F70182818823E6
:1026E00039F08091430782FF03C082E00E943907DE
:1026F000CDB7DEB7E8E00C942826809143078860C8
:1027000080934307DBCF809142078260D5CF8091D1
:1027100042078460D1CF809142078860CDCF8091FD
:1027200043078160EDCF809143078260E9CF8091BC
:1027300042078061C1CF809142078062BDCF809106
:1027400042078064B9CF0E9443128091420780689B
:10275000B3CF809142078C60AFCF809143078360F5
:10276000CFCF809142078E7FA7CF80914307877F8D
:10277000C7CF809142078D7F9FCF809142078B7F8B
:102780009BCF80914207877F97CF809143078E7FB1
:10279000B7CF809143078D7FB3CF809142078F7E63
:1027A0008BCF809142078F7D87CF809142078F7BAF
:1027B00083CF0E944312809142078F777DCF809113
:1027C0004207837F79CF809143078C7F99CF809197
:1027D000420782FB992790F921E0922790FB82F92A
:1027E00090FB83F969CF80914307982F9095917062
:1027F0008E7F892B90FB81F983CF90914207892F9F
:102800008F7B96FF806458CF0E94431290914207BD
:10281000892F97FB87F980584FCF61E08EE090E0D9
:102820000E9483264BCF60E0F9CF90914207892F19
:102830008F7E94FF806140CF90914207892F8E7FD9
:1028400090FF816039CF90914307892F877F93FF55
:10285000886056CFC6312CE7D20709F08CC2809130
:102860006506811104C089E20E940C070DCF85E343
:10287000FBCFCB352CE7D207C1F0CC35DC4709F0D4
:1028800076CE8091430782FB882780F991E08927E3
:102890000E94900D6CCE6FEF7FEF80E090E00E9481
:1028A000A1260E94721281E0F3CF80E0F1CF8281F5
:1028B00000811181882369F0C8010E949309C82F03
:1028C000682FC8010E94B006B8018C2F0E946E07C5
:1028D00054CEC8010E94DB06C82FF6CF1C2F1F70F4
:1028E000C03110F01295107FDD20B9F0112369F08E
:1028F00080E28D0F883010F0D11109C080916706F9
:10290000812B809367060E940D108D2F47C0809108
:102910006B06812B80936B06F6CF8D2F0E941012D1
:102920001123F1F180E28D0F883010F0D11104C035
:10293000812F0E945B0706C0109580916B06812352
:1029400080936B060E940D102BC01C2F1F70C07F40
:10295000C03211F01295107FDD2381F0D13009F4DF
:1029600094C0DD2009F49CC0002309F493C0F70152
:10297000858180FFCACF8F7085838CC0909143077B
:1029800092FD2DC0DD2029F1112339F080916706D9
:10299000812B809367060E940D1080E00E949F119A
:1029A000CC2009F4B3C180916C0680FDAFC1F70162
:1029B00012828595859585950E948E06C7010E9495
:1029C000881280916C068595859585950E949E0656
:1029D0009DC180E00E941012112311F3A9CFDD20C8
:1029E00061F1011106C080916606812B0E9475106D
:1029F000D7CF013089F48091660692FFD1CFC12FE5
:102A0000C82BC81769F20E9401109093700680933A
:102A10006F06C0936606C4CF053029F7812F0E9448
:102A200075100E94630790916806812F892B891782
:102A300009F4B6CF80936806B3CF011106C00E9497
:102A40006307812F0E947F10ABCF0130A9F48091E2
:102A500067068123882309F4A3CF812F0E947F106A
:102A60000E9463078091680610951823181709F4CF
:102A700097CF1093680694CF053009F491CF812F3A
:102A80000E947F100E9463078BCFDD2029F0063063
:102A900008F086CF812FAACF053008F081CFD1CFA3
:102AA000002379F2D93349F4FFEF27EE33E0F150F8
:102AB00020403040E1F700C000008D2F0E9410122E
:102AC0006FCF8C2F869586958370882369F081302F
:102AD00009F066CF8D2F9C2F9370D11002C080E03B
:102AE00090E00E94270B5CCF8D2F9C2F9370D1100C
:102AF00002C080E090E00E94010B52CF6D2D8D2F1F
:102B00000E94DA104DCF8C2F8370811142C0D110FA
:102B10002FC04D2F429546954770440F440F2D2FDF
:102B20002F7030E0042E02C0220F331F0A94E2F708
:102B300080E090E0D4FF09C08FE090E002C0880FF1
:102B4000991F4A95E2F780959095C695C695C370F2
:102B5000C230B1F0C33089F04091690650916A06E5
:102B6000C13049F0822B932B842395230E94840645
:102B70000E94F40A15CF242B352B822B932BF6CFF2
:102B8000822B932B2091690630916A068227932726
:102B9000EDCFDD2091F1C0FFEBCF4D2F4295469553
:102BA0004770440F440F2D2F2F7030E0042E02C0C9
:102BB000220F331F0A94E2F780E090E0D4FF09C0AF
:102BC0008FE090E002C0880F991F4A95E2F7809548
:102BD0009095C695C695C370C230C1F0C33099F0C8
:102BE0004091400750914107C13059F0822B932BFF
:102BF000842395230E948906BBCF823008F4B8CF86
:102C0000CCCF242B352B822B932BF4CF822B932BE1
:102C1000209140073091410782279327EBCFCF7057
:102C2000DD2039F08C2F0E948E068D2F0E947510AA
:102C30009FCF8D2F0E947F108C2F0E949E0698CFD1
:102C4000D23F91F178F4D03FC1F0D13F09F445C0B3
:102C5000DD2009F47EC0002309F478C08D2F0E9486
:102C60009F1186CFD33F39F1D43F99F1D110F3CFE3
:102C700001117DC08C2F8F71E0CFDD2099F00530E0
:102C800008F076CFCF7181E090E0FC0102C0EE0F3A
:102C9000FF1FCA95E2F780914007909141078E2768
:102CA0009F27A8CF0530ECCF8C2F8F71D110C5CFC7
:102CB0000E948E065DCF80E090E0DD2009F49ACF7F
:102CC000CF7181E090E002C0880F991FCA95E2F7AA
:102CD00091CF8091430782FD06C08C2F8F71DD203C
:102CE00009F4ABCFE5CFDD2009F180916C06877048
:102CF000843089F410926C0610926E0610926D0664
:102D00008C2F8F710E949E060E94F40A60E0C7011A
:102D10000E94C709EDCC0530B8F7CF718C2F0E9407
:102D20008E0663E08C2F0E948610EECF053050F0A7
:102D300010926C0610926E0610926D0664E08C2F55
:102D40008F71F1CF81E00E943907DECF8C2F8F7118
:102D5000AFCF002309F48ECFD93349F4FFEF27EE2C
:102D600033E0F15020403040E1F700C000008D2FEB
:102D70000E941012FDCEF7018281882309F4F7CB5F
:102D8000CA353CE7D30709F48ECDCB358CE7D8079D
:102D900008F06FCDC1309CE7D90709F482CDC3306C
:102DA000ECE7DE0709F477CDC115DC4709F0DFCB8E
:102DB0000E9443128FEF94E3ECE081509040E0409A
:102DC000E1F700C0000087E797E790930108809340
:102DD000000888E19AE00FB6F894A8958093600007
:102DE0000FBE90936000FFCFCF93DF938091550685
:102DF000803108F04CC080915206882309F447C006
:102E000080910F0620910E06309150066091510678
:102E1000C0915306D0915406732F76232817B9F129
:102E200090E0209709F442C07F3F09F43FC0FC01C5
:102E300043E0EE0FFF1F4A95E1F7DF01A05FB94FB6
:102E400011964C91119746132BC04C91431328C0F7
:102E500012964C91129741111DC013964D915C91A1
:102E60004C1B5D0B4F3A5105D8F4809155068F707D
:102E7000806180935506EB5EF94F80818F70806191
:102E8000808380E596E00E9488120E940207DF910D
:102E9000CF9108950196877099272813C8CFF7CF4F
:102EA0000196877099272813BFCFF1CF01968770BD
:102EB000B5CFADE0B0E0EFE5F7E10C940A268C0168
:102EC00085E0F801DE01199601900D928A95E1F7EF
:102ED000F801F280C380D48080E5A82E86E0B82E69
:102EE00090915006209151064091530650915406FE
:102EF0004115510509F429C1892F82238F3F09F417
:102F000024C1E0905206B601641B750BEE2009F453
:102F1000E7C0809155066F3A710508F0B9C0B180DD
:102F2000803108F06AC02B111CC02081291319C000
:102F30004091560650915706268137814217530714
:102F400081F4F1103EC08F7080618093550680E55A
:102F500096E00E94881280915506F8018583F12C35
:102F600029C0A984C114D10451F18A2D8B218F3F2E
:102F700031F1F11026C040E06B2D8A2D0E94FD0C2E
:102F800040E06B2D8A2D0E94FD0CF82E8111E7CFB9
:102F900089859A850E94EB09292F22952F709034FC
:102FA000B0F49F702230E0F09923F1F0F8019581A0
:102FB0009031D0F48F2D2D96EAE00C942626FF2038
:102FC00071F280915506816080935506C8CF2A5FC3
:102FD0002F70223068F0C8010E948812FE2CEACFC0
:102FE000992311F0882331F3805E883018F3F3CFF2
:102FF000803F00F3815F8230F9CF2B111BC020810D
:10300000291318C0409156065091570626813781E2
:103010004217530779F4F1100DC08583C8010E944F
:10302000881288E0F801A0E5B6E001900D928A953B
:10303000E1F72BC0C8010E94FA09882309F481C076
:10304000FF2009F47EC0809155068032A0F02091C7
:103050005006309151063A8329831B82DD82CC824F
:103060008E83809156069091570698878F83CE0164
:1030700001960E94881288E0F801A0E5B6E0019070
:103080000D928A95E1F70E94F416FF24F39492CFF3
:10309000803150F480E596E00E94881288E0F501C6
:1030A00011928A95E9F75BCF31813213C3CF20812A
:1030B0002913C0CF4091560650915706268137817B
:1030C0004217530709F0B6CFF110B4CF8583C8017A
:1030D0000E94881288E0F50111928A95E9F7D5CF10
:1030E0006F3A7105D8F6FF2061F1818182131FC00C
:1030F000808189131CC02091560630915706868125
:1031000097812817390799F48091550680FD89CF5A
:10311000803108F486CF8583982F907F903F09F403
:103120007DCF982F907F905F8F70892B76CFC801CD
:103130000E94FA0981119FCF80915506816080938A
:103140005506C8010E948812A0CFFF20D1F3C80104
:103150000E94FA098823A9F388E0F801A0E5B6E007
:1031600001900D928A95E1F7809150069091510659
:103170000E94EB0988CFA0E1B0E0E1ECF8E10C940B
:10318000122629873A874B875C876D877E878F87D2
:10319000988BCE0109960E945917811131C088E0A1
:1031A000FE013996DE01119601900D928A95E1F7A4
:1031B00089859A85A0910E0620910F064C855D8524
:1031C000452BF1F089238F3FD9F0B0E0CD01019676
:1031D0008770992730E082179307E1F093E0AA0FF8
:1031E000BB1F9A95E1F7A05FB94F98E0FE013196B9
:1031F00001900D929A95E1F780930E060E940207C6
:1032000080910F0690910E06891312C06096E2E03D
:103210000C942E260E94431210920E0610920F0656
:1032200088E0E0E5F6E0DF011D928A95E9F7E8CF56
:10323000B8E08B9FC0011124805F994F0E945917FD
:10324000882321F380910F0690E0019687709927DB
:1032500080930F06D5CF0F931F93CF93DF93809169
:103260003D07E091A403CCE081113EC0DF91CF91F6
:103270001F910F910895D1E0DE0FD093A4030E2F7C
:1032800010E0CE9FF0011124E358F94F838194811F
:10329000892B49F18081918189238F3F21F186819A
:1032A0009781892B21F480859185019689F4C09FAF
:1032B000F001C19FF00D1124E358F94F20813181B5
:1032C0004281538164817581868197810E94BB18F8
:1032D000C09FF001C19FF00D1124E358F94F1482F3
:1032E000138210926B06ED2F80913D07E81718F2BC
:1032F00010923D071092A403B9CFA3E0B0E0E3E839
:10330000F9E10C94022680917C0644244394512CCC
:10331000DD24D39490917B06981308C00E942B194A
:103320000E94B60A2396E2E10C941E26682E712CA8
:10333000F301EE0FFF1FEF58F94F808191814C018F
:1033400023E0880C991C2A95E1F794012F5E3E4FEB
:103350003A832983F901248121115BC020913D0723
:103360002B83ADE7B6E040E050E060E070E02B81F9
:10337000421708F04CC01A962D903C901B97E9819B
:10338000FA81A080B1802FEF3FEFC12CEC2CF12C03
:10339000F701EE0FFF1FEA0DFB1D0591149120169A
:1033A000310609F497010115110511F0C394EECF10
:1033B0002F3F3207B1F1F20102C0EE0FFF1F2A9535
:1033C000E2F76E2B7F2B92010C2C02C0220F331FD1
:1033D0000A94E2F72150310962177307F1F42CE0E7
:1033E000249FF001259FF00D1124E358F94FD401DB
:1033F000AF5EBE4F12962D913C9113973783268373
:103400003EEF30833183918780871596DC920E944E
:10341000C80AC301019683707DCF14961C921E9238
:1034200013974F5F5F4F1C96A2CF10923F071092E9
:103430003E071092100180917B0680937C060E94CB
:10344000B60A0E942B190895AAE2B0E0EAE2FAE176
:103450000C94112687E793E0FC0101962091F1007E
:10346000208323E08F379207B9F780917803893062
:1034700009F456C0C8F4823009F4B2C0833009F4AC
:1034800081C0813071F18091E80083FFE6C08091B6
:103490007703909178039A3008F0DFC0E92FF0E0CD
:1034A000E650F94D0C9459268A3009F488C08B30C7
:1034B00051F780917703813231F780917B039091AE
:1034C0007C03892B01F78091E800877F8093E800D7
:1034D0000E94FC0B8091790380930F010E9443129C
:1034E000D2CF80917703813A71F68091E800877F8F
:1034F0008093E80080917B0390917C03892B61F09D
:1035000060E080E090E070E00E94A30B8091E80012
:103510008B778093E800B7CF60E28FE793E0F3CF3B
:1035200080917703813209F0AECF80917B03909137
:103530007C03029708F0A7CF8091E800877F8093F3
:10354000E8008091E80082FF18C09091F30080911C
:10355000F200029731F48091F100813011F0863051
:1035600021F48091F10080939F038091E8008B7794
:103570008093E8000E94FC0B86CF8091CD038111DF
:10358000E0CF81CF80917703813A09F07CCF8091A1
:103590007B0390917C03892B09F075CF8091E80023
:1035A000877F8093E8008091E80080FFFCCF8091C6
:1035B0000F018093F1008091E8008E77D9CF809140
:1035C0007703813209F05FCF8091E800877F809395
:1035D000E8000E94FC0B80917A038093730353CF21
:1035E00080917703813A09F04ECF8091E800877F80
:1035F0008093E8008091E80080FFFCCF8091730306
:10360000D8CF803889F0823841F580917B038F7064
:10361000873018F58093E9008091EB0085FB8827BF
:1036200080F91092E90006C0809174039091CC0358
:10363000911182609091E800977F9093E8008093C9
:10364000F1001092F1008091E8008E7723C0811183
:1036500016C080917903813011F18091E80083FFD9
:103660000AC08091E800877F8093E8008091EB009A
:1036700080628093EB00AA96E3E00C942D268230C2
:1036800061F780917903882389F01092E900809195
:10369000E800877F8093E8000E94FC0BDECF81E08A
:1036A000933009F080E08093CC03EFCF80917B03CF
:1036B0008F702FEF280F263080F68093E90020913D
:1036C000EB0020FFE2CF933031F48091EB00806279
:1036D0008093EB00DACF9091EB0090619093EB0038
:1036E00021E030E0A90102C0440F551F8A95E2F79E
:1036F0004093EA001092EA008091EB008860E8CFE6
:103700008111ABCF109179031F778091E30080780E
:10371000812B8093E3008091E800877F8093E8000D
:103720000E94FC0B8091E80080FFFCCF8091E300B9
:1037300080688093E30083E0111101C082E08093F0
:10374000CD038BCF8058823008F087CF409179032A
:1037500050917A034C3D83E0580799F583E08A83C2
:103760008AE289834FB7F894DE01139620E03EE0A9
:1037700051E2E32FF0E050935700849120FF03C003
:1037800082958F703F5F8F708A30C8F0895C90E0BF
:103790008D939D932F5F243161F74FBF8091E80097
:1037A000877F8093E8006AE270E0CE0101960E9474
:1037B000A30B8091E8008B778093E8004ECF805D6B
:1037C000E6CF20917B0330917C03852F99278330AE
:1037D000910509F160F48130910509F472C00297F6
:1037E00009F03BCF8BE390E0E4E9F8E029C08132B7
:1037F000910509F45AC0829709F02FCF21153105A0
:1038000009F469C02130310509F027CF86EB90E03B
:10381000EEE9F7E015C0CA0199274130B1F18230D5
:10382000910509F43AC0892B09F017CFEDE0F9E0D2
:10383000E4918E2F90E0EDE0F9E0009709F40DCFD0
:103840002091E800277F2093E80020917D033091AC
:103850007E038217930708F49C0140E0211531058F
:1038600009F03EC041113CC08091E80082FDA1CF2B
:103870008091CD03882309F49CCF853009F499CF3A
:103880008091E80083FFF0CF94CFEFEFF8E0E49170
:103890008E2F90E0EFEFF8E0D0CFE1EEF8E0E4918A
:1038A0008E2F90E0E1EEF8E0C8CF2115310571F0E0
:1038B0002130310509F0D1CE89E090E0EFEBF8E05E
:1038C000BFCF82E190E0EFECF8E0BACF89E090E082
:1038D000E6EAF8E0B5CF80E490E0E4E5F8E0B0CFC8
:1038E0008091CD03882309F464CF853009F461CF3A
:1038F0008091E80083FD5DCF8091E80082FDB4CF28
:103900008091E80080FFAACF9091F3008091F200AF
:103910002115310519F08830910550F041E00897E4
:1039200009F040E08091E8008E778093E80096CF20
:1039300044914093F1003196215031090196E8CF2E
:10394000803809F08ACE8091E800877F8093E80074
:10395000809175038093F10076CE81117ECE109117
:103960007903123008F079CE8091E800877F809348
:10397000E800109375030E94FC0B112381F084E092
:103980008093CD0342E061EC81E00E946B0C42E247
:1039900061EC82E00E946B0C8091CD035ECE809141
:1039A000E30087FDECCF81E0EBCF9C014FB7F894AB
:1039B0008091D6059091D705A091D805B091D905F1
:1039C0004FBF821B930B0895AAE1B0E0EAEEFCE141
:1039D0000C940226498B5A8BE62E6B8B7C8B8D8B3D
:1039E000F62E611110926B061E861F86188A85E0DE
:1039F000FE017196DE01199601900D928A95E1F70C
:103A00008091430782FF1FC00E94011020916D0624
:103A100030916E06821B930B843F914038F0809169
:103A20006C0682FD03C082E00E9439070E940110EB
:103A300020916F0630917006821B930B843F91405A
:103A400010F00E94630799858A852C853D85232B7C
:103A500091F089238F3F79F061E0CE0109960E94B1
:103A6000C7095C0180354CE7940781F4FF2009F118
:103A700081E08093100129853A854B855C856D85B1
:103A80007E858F8598890E94BB18BDC081355CE713
:103A9000950729F4FF2069F00E94151AECCF8235B2
:103AA0009C4739F4FF2029F0809110018111F4CF57
:103AB000DFCF01E111E0712C812C912C442443943F
:103AC000512CF801608171818FEF9FEFA0E04A2FA8
:103AD00050E0FA01EE0FFF1FE60FF71F259134911A
:103AE000A216B30609F4CA01232B11F0AF5FEFCF82
:103AF00020E08F3F980709F449C0F80134816580C0
:103B0000468157813111FFC020911001222309F411
:103B1000FBC0FF2009F4F8C061101AC021E030E0BA
:103B2000B90102C0660F771F8A95E2F7CB01842B9B
:103B3000952B978386838091790690917A068A3FA8
:103B4000910530F48AEF90E090937A06809379069D
:103B5000C20102C0880F991FAA95E2F70197F801E8
:103B6000268137818217930781F480913E079091D7
:103B70003F07009709F44BC00E94D51C8B3F91056D
:103B800008F445C081E0F80184832E2D722AFFEFEE
:103B90008F1A9F0A085F1F4F2EE38216910409F0C7
:103BA00090CFFF2009F418C1772009F403C10E94C7
:103BB000011090933F0780933E0780913D0780312D
:103BC00010F591E0980F90933D0798E0FE0139962B
:103BD000DE01119601900D929A95E1F73CE0839FEA
:103BE000C00111248358994F28E0FE013196DC0171
:103BF00001900D922A95E1F72FEF3FEFFC013187FD
:103C00002087B386A2866A96E2E10C941E26209154
:103C10007C0680917B06922FE0E0F0E00A8F612E17
:103C2000281314C090937C06E017F10709F4ADCF78
:103C300090E0FC01EE0FFF1FEF58F94F9182808258
:103C400001968370992780937B069FCFC22ED12C3B
:103C5000F601EE0FFF1FEF58F94FA081B181E3E0AD
:103C6000AA0FBB1FEA95E1F7AF5EBE4F4D915C9185
:103C70001197598F488F212C30E0312CE32DF0E043
:103C8000EE0FFF1F488D598DE40FF51F459154919C
:103C900041155105E1F0F8010190F081E02DFF8B15
:103CA000EE8B30E005C04617570709F42E2C3F5F16
:103CB000E32FF0E0EE0FFF1F6E897F89E60FF71FFD
:103CC000659174916115710571F73394D7CF2220F6
:103CD000B9F0EA8DF62D331508F0FD0131E034839B
:103CE000E017F10709F49ECF921305C0AE17BF0786
:103CF00011F49F5F937096012F5F3F4F237090CF19
:103D0000E0E0F0E0F8CF20E0620102C0CC0CDD1C66
:103D10008A95E2F7611012C0C20102C0880F991F94
:103D2000AA95E2F701978417950711F020E033C0B8
:103D3000332389F1C4010E94C80AF8CFB601642375
:103D40007523CA01019784239523892B79F5611581
:103D5000710561F1F80182819381892BC9F01B8281
:103D60001C821D821E828EEF89838A830E9401102D
:103D70008160582F692F9D838C83F8018281938104
:103D80008F83988729813A814B817E810E94BB185D
:103D9000F8011582262DC60180959095F80146817F
:103DA00057818423952397838683F0CE21E0672B68
:103DB00091F7BCCF90917C0680917B06981309C047
:103DC0000E942B1910923F0710923E070E94B60ADC
:103DD00052CE0E947D194FCE90917C0680917B0639
:103DE000981729F00E947D1971100DCF44CE0E94C2
:103DF0002B1910923F0710923E070E94B60AF4CF8B
:103E0000A5E0B0E0E6E0FFE10C9410260E9401106E
:103E10008C018091EA059091EB058017910791F054
:103E20008FEF89838A831B820E9401108160782F23
:103E300049815A816B81892F0E94E41C1093EB0504
:103E40000093EA052596E4E00C942C26A2E0B0E06D
:103E5000ECE2FFE10C940C261A821982FE013196E5
:103E600049E053E07E0183E0E80EF11CBF018A01C6
:103E700084E0C82EDD24D39430E0D8012D918D014B
:103E80002F3F09F450C0A22FA295AF70A05EB0E002
:103E90008C9190E02F7002C0959587952A95E2F756
:103EA0008170811140C08D2D382BDD0CCA94C1105A
:103EB000E4CF31934C5F5F4FEE15FF05C1F642E052
:103EC00050E087EC93E00E946826892B71F189818C
:103ED0009A819093C8038093C70381E080936C0319
:103EE0000E94011090936B0380936A0380916A0390
:103EF00090916B030E94D51C0597D8F042E050E0EA
:103F000067EC73E08EEC93E00E946826892B41F009
:103F10008091C7039091C8039093CF038093CE0301
:103F200010926C0306C080E0BFCF80916C038111BA
:103F3000DDCF2296E8E00C942826CDB7DEB72E9789
:103F40000FB6F894DEBF0FBECDBF85B7806885BFC2
:103F500085B7806885BF84B7877F84BF0FB6F89424
:103F6000A895809160008861809360001092600045
:103F70000FBE80E890E00FB6F894809361009093B4
:103F800061000FBE8DE29AE090934903809348034D
:103F90000E944C0C0E94A20C8091E20084608093ED
:103FA000E20078948091CD03882399F08091E90014
:103FB0001091EC001795112717958F70182B109200
:103FC000E9008091E80083FD0E94241A1F7010937D
:103FD000E90082E084BD93E095BD9AEF97BD8093A0
:103FE0006E0029E033E061E070E0D90140E050E08C
:103FF0008D918F3FA1F0E82FE295EF70F0E011A1D5
:104000008F707B0102C0EE0CFF1C8A95E2F7C7019E
:104010009E2D9095912391A392A1892B82A34F5F0E
:104020005F4F4430510521F72C5F3F4F43E0213172
:104030003407D9F61092CF031092CE031092C80322
:104040001092C70380E090E00E947D26873E9E4F3D
:1040500009F45EC067EE7EEF80E090E00E94A1264A
:1040600060E082E090E00E94832660E083E090E0E0
:104070000E94832610926A061092690660E074E13D
:1040800084E090E00E94A12660E086E090E00E943B
:1040900083266FEF87E090E00E94832640E050E0A7
:1040A000BA0188E090E00E94952660E08DE090E003
:1040B0000E94832640E050E0BA0188E190E00E942F
:1040C000952660E087E190E00E94832640E050E082
:1040D000BA018CE190E00E94952660E070E080E2F9
:1040E00090E00E94A12640E050E0BA0188E190E013
:1040F0000E94952640E050E0BA018FE090E00E94D7
:10410000952640E050E0BA0183E190E00E949526B8
:1041100082E090E00E9475268093D00384E090E0D6
:104120000E947D26909343078093420783E090E0AE
:104130000E94752690E00E94840683E08093CA0363
:1041400080E28093D5050E94F3246DE070E084E264
:1041500099E00E94BC0D892B89F58091CA0363E028
:1041600070E081FD67C081E299E00E94BC0D892B5F
:1041700029F56DE070E081E199E00E94BC0D892B8A
:10418000E9F40E94830B6F83788789879A87DC0123
:10419000CB01805A9541AF4FBF4F8093DF0590937D
:1041A000E005A093E105B093E2050E94A70D81E030
:1041B0008093E4058093E3051092C90387E091E0C2
:1041C0009093ED058093EC0555245394CE01019610
:1041D00028E1A22EB12C30E4232E45ED842E43E0BD
:1041E000942E8F83492E8091CD03853041F48091A8
:1041F000CD03853011F10E9443120E94F40A0E94FF
:10420000261F9091CE038091D103981364C09091A2
:10421000CF038091D20398135EC00E94001F80914B
:104220001001811195C18091E405882309F497C09C
:1042300010E024C18EE199E098CF8091CD038430C5
:1042400019F10E94E50D1092CB030FB6F894A895D2
:10425000A09260000FBE2092600083B7817F8460CF
:1042600083BF83B7816083BF7894889583B78E7F3F
:1042700083BF0FB6F894A895809160008861809301
:104280006000109260000FBE8091CC03882309F477
:10429000AECF0E94261F8091CE039091CF03892B31
:1042A000882309F4A4CF80E189BD82E189BD09B4E6
:1042B00000FEFDCF8091D8008F7D8093D800809143
:1042C000E00082608093E0008091E00081FDFCCFFF
:1042D0000E9443128CCF8EECC82E83E0D82E91ED35
:1042E000E92E93E0F92E312CD6011D916D01F701D5
:1042F00061907F01611621F1612600E077247394BB
:10430000862D87218823A9F009833A8291E0812FA5
:104310008721811101C090E09B830E940110816080
:10432000782F9D838C8349815A816B81892F0E94CC
:10433000E41C0F5F770C043019F7F70131971083F5
:10434000332009F472C00E94830B109110011111E7
:104350006FC01091E405111191C00E94F80D86E024
:10436000EFE5F6E0AF81B42D01900D928A95E1F76B
:104370001092610610926206109263061092640613
:104380008B819C81892B882379F08091E70590911E
:10439000E8050E94D51C9C0180915D06811154C1E5
:1043A0002B30310508F056C18D819E81892B8823E1
:1043B00079F08091E5059091E6050E94D51C9C015D
:1043C00080915C06811185C12B30310508F087C1D1
:1043D00046E050E06F81742D8FE596E00E946826DC
:1043E000892B61F48091610690916206892B9091EE
:1043F0006306892B90916406892B81110E94B2106B
:1044000086E0EF81F42DAFE5B6E001900D928A953C
:10441000E1F70E94F40A9091E905891709F4E3CEC7
:104420008093E9050E94830BDECE332433945CCF66
:1044300080913E0790913F07009709F48ACF0E9430
:10444000D51C2091790630917A062817390788F40F
:1044500090917C0680917B06981709F482C00E9497
:104460007D1910927A061092790610923F071092E9
:104470003E078091E405882309F466C09092D40336
:104480008092D3038091E3058823C9F18091DB05F5
:104490009091DC05A091DD05B091DE05892B8A2B7A
:1044A0008B2B51F40E94830B6093DB057093DC052A
:1044B0008093DD059093DE054091DB055091DC058E
:1044C0006091DD057091DE052FB7F8948091D605D7
:1044D0009091D705A091D805B091D9052FBF841B25
:1044E000950BA60BB70B803D9740A105B10508F0D1
:1044F00041C060E072E081E19AE00E94740A0E948B
:10450000250E8091E3058823F9F00E94830B6B87C9
:104510007C878D879E878091DF059091E005A09133
:10452000E105B091E2052B853C854D855E85281B14
:10453000390B4A0B5B0BDA01C9018F3F9F4FAF4F1D
:10454000BF4710F40E94E50D112309F408CF05CFF1
:1045500080913E0790913F07009709F464CE10E0E8
:104560006ECF0E942B1910923F0710923E070E94B7
:10457000B60A7FCF8091DA05811104C00E94A70D91
:104580005092DA0560E870E081E999E00E94740ACF
:104590008091D50525E0829FC0011124811532E06C
:1045A000930714F080E090E08B529C4F9093D403DB
:1045B0008093D30380914007909141070E94600649
:1045C0008730D8F5E82FF0E0EC5FF84D0C945926D1
:1045D0008BE899E00E94CC0F85E899E00E94CC0F0F
:1045E0000E94250E8CCF8FE799E00E94CC0F89E7BF
:1045F00099E0F4CF83E799E00E94CC0F8DE699E033
:10460000EDCF87E699E00E94CC0F81E699E0E6CFF6
:104610008BE599E00E94CC0F85E599E0DFCF8FE430
:1046200099E00E94CC0F89E499E0D8CF83E499E027
:104630000E94CC0F8DE399E0D1CF87E399E00E94EF
:10464000CC0F81E399E0CACF2531310508F4ACCE17
:104650008F3F19F08F5F80935D061B81112359F006
:104660000E942F0A91E011160CF09FEF899F802D78
:104670001124809361061C81112359F00E942F0A96
:1046800091E011160CF09FEF899F802D11248093EB
:10469000620630916106332309F486CE20916206CA
:1046A000222309F481CE45EB3403C0011124892F64
:1046B000911101C081E08093610655EB25039001C3
:1046C0001124332319F0309362066ECE50926206A5
:1046D0006BCE2135310508F47BCE8F3F19F08F5F0B
:1046E00080935C061D81112359F00E944F0A91E0CE
:1046F00011160CF09FEF899F802D11248093630683
:104700001E81112359F00E944F0A91E011160CF0FE
:104710009FEF899F802D112480936406309163065A
:10472000332309F455CE20916406222309F450CE98
:1047300045EB3403C0011124892F911101C081E0A0
:104740008093630655EB250390011124332319F060
:10475000309364063DCE509264063ACE78941F9210
:104760001FB61F9211248F939F93AF93BF93809195
:10477000D6059091D705A091D805B091D90501969D
:10478000A11DB11D8093D6059093D705A093D805A0
:10479000B093D905BF91AF919F918F911F901FBE8C
:1047A0001F9018951F920F920FB60F9211242F93FE
:1047B0003F934F935F936F937F938F939F93AF93A9
:1047C000BF93EF93FF938091E10082FF09C0809136
:1047D000E20082FF05C08091E1008B7F8093E100C1
:1047E0008091DA0080FF24C08091D80080FF20C033
:1047F0008091DA008E7F8093DA008091D90080FF6B
:104800009BC080E189BD82E189BD09B400FEFDCF76
:1048100081E08093CD0380917603811109C00E94CD
:104820004C0C0E94A20C8091E20084608093E20014
:104830008091E10080FF17C08091E20080FF13C0EB
:104840008091E2008E7F8093E2008091E20080619F
:104850008093E2008091D80080628093D80019BCD8
:1048600085E08093CD038091E10084FF29C0809191
:10487000E20084FF25C080E189BD82E189BD09B4E1
:1048800000FEFDCF8091D8008F7D8093D80080916D
:10489000E1008F7E8093E1008091E2008F7E809323
:1048A000E2008091E20081608093E20080917503D4
:1048B000882309F447C084E08093CD038091CD0321
:1048C0008091E10083FF27C08091E20083FF23C035
:1048D0008091E100877F8093E10082E08093CD03A7
:1048E000109275038091E1008E7F8093E1008091AA
:1048F000E2008E7F8093E2008091E20080618093ED
:10490000E20042E060E080E00E946B0C8091F000E9
:1049100088608093F000FF91EF91BF91AF919F91DC
:104920008F917F916F915F914F913F912F910F9058
:104930000FBE0F901F90189519BC1092CD031092C6
:10494000760376CF8091E30087FF02C083E0B4CF87
:1049500081E0B2CF1F920F920FB60F921124FF92F7
:104960000F931F932F933F934F935F936F937F9377
:104970008F939F93AF93BF93CF93DF93EF93FF9367
:1049800009EE10E0F8018081C091EC00C795CC27BA
:10499000C7958F70FC2EF82A1082C0EFD0E0888176
:1049A000877F888378940E94241AF8011082888176
:1049B00088608883CF2DCF70C083FF91EF91DF9106
:1049C000CF91BF91AF919F918F917F916F915F91A7
:1049D0004F913F912F911F910F91FF900F900FBE1C
:1049E0000F901F9018951092B9008CE08093B8003A
:1049F0000895A0E0B0E0EFEFF4E20C940926B82EA1
:104A0000EB010E9401106C01EE24E394F12CC431FF
:104A1000D10560F025E0E22EF12CCF3FDC0731F02C
:104A2000CE0164E170E00E94EE257B0184EAA82EAD
:104A300094E8992E1092BC00A092BC000E94011034
:104A4000182F092F8091BC0087FF0CC08091B900FE
:104A5000887F8830F9F08091B900887F8031D1F06B
:104A60000FEF08C0812F902F0E94D51CE816F90681
:104A700048F70EEF1FEFCF3FDC07E1F2C6010E94BF
:104A8000D51CC817D907B0F6C801CDB7DEB7EBE023
:104A90000C942526B092BB009092BC000E9401109D
:104AA000182F092F8091BC0087FF0AC02091B90000
:104AB000287F283111F0203499F600E010E0E4CF8F
:104AC000812F902F0E94D51CE816F90658F7D1CFF8
:104AD0000F931F93CF93DF93EB018093BB0084E888
:104AE0008093BC000E940110182F092F8091BC00F8
:104AF00087FF11C02091B900287F81E090E0283223
:104B000011F480E090E0919581959109DF91CF912A
:104B10001F910F910895CF3FDC0741F3812F902F14
:104B20000E94D51CC817D90708F78EEF9FEFEECF6C
:104B3000A0E0B0E0EEE9F5E20C940C266B018A01EE
:104B4000F22EE32E622F732F0E94F924AC01E601AE
:104B50000C0D1D1DC017D10711F057FF09C084E9C6
:104B60008093BC00CA01CDB7DEB7E8E00C942826DC
:104B70006F2D7E2D89910E946825AC01EBCFA0E0BE
:104B8000B0E0E5ECF5E20C940C26C62F6A01790141
:104B9000B8010E94F9249C0197FD0DC0B8018C2F2B
:104BA0000E9468259C01E601EC0CFD1CCE15DF057A
:104BB00011F037FF09C084E98093BC00C901CDB76B
:104BC000DEB7E8E00C942826B80189910E94682598
:104BD0009C01ECCF84E98093BC000895AA1BBB1B09
:104BE00051E107C0AA1FBB1FA617B70710F0A61BED
:104BF000B70B881F991F5A95A9F780959095BC010E
:104C0000CD0108952F923F924F925F926F927F92C3
:104C10008F929F92AF92BF92CF92DF92EF92FF92CC
:104C20000F931F93CF93DF93CDB7DEB7CA1BDB0B78
:104C30000FB6F894DEBF0FBECDBF09942A8839881D
:104C400048885F846E847D848C849B84AA84B98424
:104C5000C884DF80EE80FD800C811B81AA81B98130
:104C6000CE0FD11D0FB6F894DEBF0FBECDBFED0144
:104C70000895991B79E004C0991F961708F0961BB8
:104C8000881F7A95C9F78095089597FB072E16F42B
:104C9000009407D077FD09D00E94EE2507FC05D0CF
:104CA0003EF4909581959F4F0895709561957F4F43
:104CB0000895EE0FFF1F0590F491E02D0994FB017C
:104CC000DC0102C005900D9241505040D8F7089584
:104CD000FB01DC0104C08D910190801921F4415049
:104CE0005040C8F7881B990B0895F999FECF92BDE3
:104CF00081BDF89A992780B50895A8E1B0E042E017
:104D000050E00C94A926262FF999FECF92BD81BDC3
:104D1000F89A019700B4021639F01FBA20BD0FB6F9
:104D2000F894FA9AF99A0FBE08950396272F0E94D5
:104D300084260E948326252F0E948426242F0C94EB
:104D400084260196272F0E9484260C948326DC015A
:104D5000CB01FC01F999FECF06C0F2BDE1BDF89A86
:104D6000319600B40D9241505040B8F70895F89430
:104D7000FFCFE610EE10F110F7100C110C110C1112
:104D80000C110C110C110C110C11FA10FF10031165
:104D900009111A11201124116E146E14A514A514F2
:104DA00061157E15D014D01483150F162016201609
:104DB000B1131C14B91383138713BD138B13C113C1
:104DC000CD13971315149B13D1139F13D513FD13F4
:104DD000A313D9130414A913DF13E7138F13C513F7
:104DE0009313C913AD13E313F3130D1413147D13AD
:104DF000B5132314011B271B2D1B271B2D1B801BE9
:104E0000A21B2D1BA01CAD1CE822F322FA220123B9
:064E1000082316230F2306
:104E16000021007F220003A00B5A0D820D890D018F
:104E26000154020500000000004E020600000000CA
:104E360000480211000000000042020900000000C4
:104E4600003C020A000000000036021800000000C4
:104E56000030020B00000000002A021900000000CA
:104E66000024020D00000000001E021A00000000CF
:104E76000018020E000000000010021000000000E2
:104E860000080207000000000000021300000000F6
:104E960000F801140000000000F0011B00000000F3
:104EA60000E8010F0000000000DE011D0000000008
:104EB60000D801240000000000D2012500000000F7
:104EC60000CC01260000000000C6012700000000FB
:104ED60000C001370000000000BA013600000000E3
:104EE60000B401380000000000AE011E0200000000
:104EF60000A601340000000000A0012A0000000006
:104F0600009A014C000000000090012B00000000F8
:104F16000086012C000000000080012A000000002D
:104F2600007A014C000000000070012B0000000018
:104F36000066012C000000000060012A000000004D
:104F4600005A014C00000000005401280000000037
:104F5600004E011027000000004801112700000044
:104F66000042011227000000003A0129000000005B
:104F76000034011427000000002A01132700000056
:104F86000020013900000000001A0128000000007E
:104F96000014011027000000000E01112700000078
:104FA600000801122700000000000129000000008F
:104FB60000FA00142700000000F00013270000008C
:104FC60000E800645200000000E0006452000000A7
:104FD60000D800665200000000D0006652000000B3
:104FE60000CA00400000000000C4004100000000AC
:104FF60000BE00420000000000B8004300000000B0
:1050060000B200440000000000AC004500000000B3
:10501600000008101818100800F7F6F5F4363233B9
:1050260031E200E900EA00B500B600B700CD008322
:1050360001CC008A01920194012102230224022557
:1050460002260227022A02B300B4006F0070009FF6
:0850560001CB019F02A0020042
:00000001FF
